{
  "_format": "hh-sol-artifact-1",
  "contractName": "CampaignFactory",
  "sourceName": "contracts/CampaignFactory.sol",
  "abi": [
    {
      "inputs": [
        {
          "internalType": "uint256",
          "name": "",
          "type": "uint256"
        }
      ],
      "name": "campaigns",
      "outputs": [
        {
          "internalType": "address",
          "name": "",
          "type": "address"
        }
      ],
      "stateMutability": "view",
      "type": "function"
    },
    {
      "inputs": [],
      "name": "createCampaign",
      "outputs": [
        {
          "internalType": "address",
          "name": "campaign",
          "type": "address"
        }
      ],
      "stateMutability": "nonpayable",
      "type": "function"
    },
    {
      "inputs": [],
      "name": "getAllCampaigns",
      "outputs": [
        {
          "internalType": "address[]",
          "name": "",
          "type": "address[]"
        }
      ],
      "stateMutability": "view",
      "type": "function"
    }
  ],
  "bytecode": "0x608060405234801561001057600080fd5b5061103a806100206000396000f3fe608060405234801561001057600080fd5b50600436106100415760003560e01c8063141961bc146100465780636201fe691461007657806386cdf60414610094575b600080fd5b610060600480360381019061005b919061026a565b6100b2565b60405161006d91906102d8565b60405180910390f35b61007e6100f1565b60405161008b91906102d8565b60405180910390f35b61009c610194565b6040516100a991906103b1565b60405180910390f35b600081815481106100c257600080fd5b906000526020600020016000915054906101000a900473ffffffffffffffffffffffffffffffffffffffff1681565b6000803360405161010190610222565b61010b91906102d8565b604051809103906000f080158015610127573d6000803e3d6000fd5b5090506000819080600181540180825580915050600190039060005260206000200160009091909190916101000a81548173ffffffffffffffffffffffffffffffffffffffff021916908373ffffffffffffffffffffffffffffffffffffffff1602179055508091505090565b6060600080548060200260200160405190810160405280929190818152602001828054801561021857602002820191906000526020600020905b8160009054906101000a900473ffffffffffffffffffffffffffffffffffffffff1673ffffffffffffffffffffffffffffffffffffffff16815260200190600101908083116101ce575b5050505050905090565b610c31806103d483390190565b600080fd5b6000819050919050565b61024781610234565b811461025257600080fd5b50565b6000813590506102648161023e565b92915050565b6000602082840312156102805761027f61022f565b5b600061028e84828501610255565b91505092915050565b600073ffffffffffffffffffffffffffffffffffffffff82169050919050565b60006102c282610297565b9050919050565b6102d2816102b7565b82525050565b60006020820190506102ed60008301846102c9565b92915050565b600081519050919050565b600082825260208201905092915050565b6000819050602082019050919050565b610328816102b7565b82525050565b600061033a838361031f565b60208301905092915050565b6000602082019050919050565b600061035e826102f3565b61036881856102fe565b93506103738361030f565b8060005b838110156103a457815161038b888261032e565b975061039683610346565b925050600181019050610377565b5085935050505092915050565b600060208201905081810360008301526103cb8184610353565b90509291505056fe608060405234801561001057600080fd5b50604051610c31380380610c31833981810160405281019061003291906100db565b806000806101000a81548173ffffffffffffffffffffffffffffffffffffffff021916908373ffffffffffffffffffffffffffffffffffffffff16021790555050610108565b600080fd5b600073ffffffffffffffffffffffffffffffffffffffff82169050919050565b60006100a88261007d565b9050919050565b6100b88161009d565b81146100c357600080fd5b50565b6000815190506100d5816100af565b92915050565b6000602082840312156100f1576100f0610078565b5b60006100ff848285016100c6565b91505092915050565b610b1a806101176000396000f3fe6080604052600436106100a75760003560e01c8063937e09b111610064578063937e09b1146101aa578063b60d4288146101d5578063e4133d6f146101df578063e792dd8a14610208578063e9f146a314610245578063f84038b114610270576100a7565b806312065fe0146100ac57806314ec993d146100d75780632f971029146100ee57806334b66460146101175780638da5cb5b1461015457806390e4f4c61461017f575b600080fd5b3480156100b857600080fd5b506100c161029b565b6040516100ce91906107cd565b60405180910390f35b3480156100e357600080fd5b506100ec6102a3565b005b3480156100fa57600080fd5b506101156004803603810190610110919061084b565b610426565b005b34801561012357600080fd5b5061013e600480360381019061013991906108b6565b610470565b60405161014b91906108fe565b60405180910390f35b34801561016057600080fd5b50610169610490565b6040516101769190610928565b60405180910390f35b34801561018b57600080fd5b506101946104b4565b6040516101a191906107cd565b60405180910390f35b3480156101b657600080fd5b506101bf6104c0565b6040516101cc91906107cd565b60405180910390f35b6101dd6104c6565b005b3480156101eb57600080fd5b50610206600480360381019061020191906108b6565b610538565b005b34801561021457600080fd5b5061022f600480360381019061022a919061096f565b610765565b60405161023c9190610928565b60405180910390f35b34801561025157600080fd5b5061025a6107a4565b60405161026791906107cd565b60405180910390f35b34801561027c57600080fd5b506102856107aa565b60405161029291906107cd565b60405180910390f35b600047905090565b60008054906101000a900473ffffffffffffffffffffffffffffffffffffffff1673ffffffffffffffffffffffffffffffffffffffff163373ffffffffffffffffffffffffffffffffffffffff16146102fb57600080fd5b670de0b6b3a764000061030c61029b565b1015610344576040517f46cec71a00000000000000000000000000000000000000000000000000000000815260040160405180910390fd5b600060048054905061035461029b565b61035e91906109fa565b905060005b600480549050811015610422576004818154811061038457610383610a2b565b5b9060005260206000200160009054906101000a900473ffffffffffffffffffffffffffffffffffffffff1673ffffffffffffffffffffffffffffffffffffffff1663d7bb99ba836040518263ffffffff1660e01b81526004016000604051808303818588803b1580156103f657600080fd5b505af115801561040a573d6000803e3d6000fd5b5050505050808061041a90610a5a565b915050610363565b5050565b8073ffffffffffffffffffffffffffffffffffffffff166108fc479081150290604051600060405180830381858888f1935050505015801561046c573d6000803e3d6000fd5b5050565b60026020528060005260406000206000915054906101000a900460ff1681565b60008054906101000a900473ffffffffffffffffffffffffffffffffffffffff1681565b670de0b6b3a764000081565b60015481565b6001600260003373ffffffffffffffffffffffffffffffffffffffff1673ffffffffffffffffffffffffffffffffffffffff16815260200190815260200160002060006101000a81548160ff0219169083151502179055506003600081548092919061053190610a5a565b9190505550565b60008054906101000a900473ffffffffffffffffffffffffffffffffffffffff1673ffffffffffffffffffffffffffffffffffffffff163373ffffffffffffffffffffffffffffffffffffffff161461059057600080fd5b60005b600480549050811015610656578173ffffffffffffffffffffffffffffffffffffffff16600482815481106105cb576105ca610a2b565b5b9060005260206000200160009054906101000a900473ffffffffffffffffffffffffffffffffffffffff1673ffffffffffffffffffffffffffffffffffffffff1603610643576040517f5bb7d60100000000000000000000000000000000000000000000000000000000815260040160405180910390fd5b808061064e90610a5a565b915050610593565b5060038173ffffffffffffffffffffffffffffffffffffffff16637e6253da6040518163ffffffff1660e01b8152600401602060405180830381865afa1580156106a4573d6000803e3d6000fd5b505050506040513d601f19601f820116820180604052508101906106c89190610ab7565b106106ff576040517f4dd7f2f900000000000000000000000000000000000000000000000000000000815260040160405180910390fd5b6004819080600181540180825580915050600190039060005260206000200160009091909190916101000a81548173ffffffffffffffffffffffffffffffffffffffff021916908373ffffffffffffffffffffffffffffffffffffffff16021790555050565b6004818154811061077557600080fd5b906000526020600020016000915054906101000a900473ffffffffffffffffffffffffffffffffffffffff1681565b60035481565b6000600154905090565b6000819050919050565b6107c7816107b4565b82525050565b60006020820190506107e260008301846107be565b92915050565b600080fd5b600073ffffffffffffffffffffffffffffffffffffffff82169050919050565b6000610818826107ed565b9050919050565b6108288161080d565b811461083357600080fd5b50565b6000813590506108458161081f565b92915050565b600060208284031215610861576108606107e8565b5b600061086f84828501610836565b91505092915050565b6000610883826107ed565b9050919050565b61089381610878565b811461089e57600080fd5b50565b6000813590506108b08161088a565b92915050565b6000602082840312156108cc576108cb6107e8565b5b60006108da848285016108a1565b91505092915050565b60008115159050919050565b6108f8816108e3565b82525050565b600060208201905061091360008301846108ef565b92915050565b61092281610878565b82525050565b600060208201905061093d6000830184610919565b92915050565b61094c816107b4565b811461095757600080fd5b50565b60008135905061096981610943565b92915050565b600060208284031215610985576109846107e8565b5b60006109938482850161095a565b91505092915050565b7f4e487b7100000000000000000000000000000000000000000000000000000000600052601260045260246000fd5b7f4e487b7100000000000000000000000000000000000000000000000000000000600052601160045260246000fd5b6000610a05826107b4565b9150610a10836107b4565b925082610a2057610a1f61099c565b5b828204905092915050565b7f4e487b7100000000000000000000000000000000000000000000000000000000600052603260045260246000fd5b6000610a65826107b4565b91507fffffffffffffffffffffffffffffffffffffffffffffffffffffffffffffffff8203610a9757610a966109cb565b5b600182019050919050565b600081519050610ab181610943565b92915050565b600060208284031215610acd57610acc6107e8565b5b6000610adb84828501610aa2565b9150509291505056fea2646970667358221220855c46fd50eb87ffa2b6ada258620af2f0d5c8c8ddf145aca2e63c7f08cd640364736f6c63430008110033a264697066735822122083c014f42d41b59cc6b09651feba0f75bcdf5b5475c9a8a167783bc47193682c64736f6c63430008110033",
  "linkReferences": {},
  "deployedLinkReferences": {}
}