{
  "_format": "hh-sol-artifact-1",
  "contractName": "Campaign",
  "sourceName": "contracts/Campaign.sol",
  "abi": [
    {
      "inputs": [],
      "stateMutability": "nonpayable",
      "type": "constructor"
    },
    {
      "inputs": [],
      "name": "Campaign__AlreadyEnrolled",
      "type": "error"
    },
    {
      "inputs": [],
      "name": "Campaign__NoOrganizationEnrolled",
      "type": "error"
    },
    {
      "inputs": [
        {
          "internalType": "address",
          "name": "",
          "type": "address"
        }
      ],
      "name": "contributers",
      "outputs": [
        {
          "internalType": "bool",
          "name": "",
          "type": "bool"
        }
      ],
      "stateMutability": "view",
      "type": "function"
    },
    {
      "inputs": [],
      "name": "contributersCount",
      "outputs": [
        {
          "internalType": "uint256",
          "name": "",
          "type": "uint256"
        }
      ],
      "stateMutability": "view",
      "type": "function"
    },
    {
      "inputs": [],
      "name": "disburseFunds",
      "outputs": [],
      "stateMutability": "nonpayable",
      "type": "function"
    },
    {
      "inputs": [
        {
          "internalType": "address",
          "name": "organization",
          "type": "address"
        }
      ],
      "name": "enrollOrganization",
      "outputs": [],
      "stateMutability": "nonpayable",
      "type": "function"
    },
    {
      "inputs": [],
      "name": "fund",
      "outputs": [],
      "stateMutability": "payable",
      "type": "function"
    },
    {
      "inputs": [],
      "name": "getBalance",
      "outputs": [
        {
          "internalType": "uint256",
          "name": "",
          "type": "uint256"
        }
      ],
      "stateMutability": "view",
      "type": "function"
    },
    {
      "inputs": [],
      "name": "getMinimumContribution",
      "outputs": [
        {
          "internalType": "uint256",
          "name": "",
          "type": "uint256"
        }
      ],
      "stateMutability": "view",
      "type": "function"
    },
    {
      "inputs": [],
      "name": "getOrganizations",
      "outputs": [
        {
          "internalType": "address[]",
          "name": "",
          "type": "address[]"
        }
      ],
      "stateMutability": "view",
      "type": "function"
    },
    {
      "inputs": [],
      "name": "minimumContribution",
      "outputs": [
        {
          "internalType": "uint256",
          "name": "",
          "type": "uint256"
        }
      ],
      "stateMutability": "view",
      "type": "function"
    },
    {
      "inputs": [],
      "name": "minimumDisburseAllowed",
      "outputs": [
        {
          "internalType": "uint256",
          "name": "",
          "type": "uint256"
        }
      ],
      "stateMutability": "view",
      "type": "function"
    },
    {
      "inputs": [
        {
          "internalType": "uint256",
          "name": "",
          "type": "uint256"
        }
      ],
      "name": "organizations",
      "outputs": [
        {
          "internalType": "address",
          "name": "",
          "type": "address"
        }
      ],
      "stateMutability": "view",
      "type": "function"
    },
    {
      "inputs": [],
      "name": "owner",
      "outputs": [
        {
          "internalType": "address",
          "name": "",
          "type": "address"
        }
      ],
      "stateMutability": "view",
      "type": "function"
    },
    {
      "inputs": [
        {
          "internalType": "address payable",
          "name": "recipient",
          "type": "address"
        }
      ],
      "name": "withdrawMoney",
      "outputs": [],
      "stateMutability": "nonpayable",
      "type": "function"
    }
  ],
  "bytecode": "0x608060405234801561001057600080fd5b50336000806101000a81548173ffffffffffffffffffffffffffffffffffffffff021916908373ffffffffffffffffffffffffffffffffffffffff160217905550600067ffffffffffffffff81111561006c5761006b61015d565b5b60405190808252806020026020018201604052801561009a5781602001602082028036833780820191505090505b50600490805190602001906100b09291906100b6565b5061018c565b82805482825590600052602060002090810192821561012f579160200282015b8281111561012e5782518260006101000a81548173ffffffffffffffffffffffffffffffffffffffff021916908373ffffffffffffffffffffffffffffffffffffffff160217905550916020019190600101906100d6565b5b50905061013c9190610140565b5090565b5b80821115610159576000816000905550600101610141565b5090565b7f4e487b7100000000000000000000000000000000000000000000000000000000600052604160045260246000fd5b610b818061019b6000396000f3fe6080604052600436106100c25760003560e01c8063937e09b11161007f578063e4133d6f11610059578063e4133d6f14610225578063e792dd8a1461024e578063e9f146a31461028b578063f84038b1146102b6576100c2565b8063937e09b1146101c55780639754a3a8146101f0578063b60d42881461021b576100c2565b806312065fe0146100c757806314ec993d146100f25780632f9710291461010957806334b66460146101325780638da5cb5b1461016f57806390e4f4c61461019a575b600080fd5b3480156100d357600080fd5b506100dc6102e1565b6040516100e99190610796565b60405180910390f35b3480156100fe57600080fd5b506101076102e9565b005b34801561011557600080fd5b50610130600480360381019061012b9190610814565b61040a565b005b34801561013e57600080fd5b506101596004803603810190610154919061087f565b610454565b60405161016691906108c7565b60405180910390f35b34801561017b57600080fd5b50610184610474565b60405161019191906108f1565b60405180910390f35b3480156101a657600080fd5b506101af610498565b6040516101bc9190610796565b60405180910390f35b3480156101d157600080fd5b506101da6104a3565b6040516101e79190610796565b60405180910390f35b3480156101fc57600080fd5b506102056104a9565b60405161021291906109ca565b60405180910390f35b610223610537565b005b34801561023157600080fd5b5061024c6004803603810190610247919061087f565b6105a9565b005b34801561025a57600080fd5b5061027560048036038101906102709190610a18565b61072e565b60405161028291906108f1565b60405180910390f35b34801561029757600080fd5b506102a061076d565b6040516102ad9190610796565b60405180910390f35b3480156102c257600080fd5b506102cb610773565b6040516102d89190610796565b60405180910390f35b600047905090565b600060048054905011610328576040517f94f26a8600000000000000000000000000000000000000000000000000000000815260040160405180910390fd5b60006004805490506103386102e1565b6103429190610aa3565b905060005b600480549050811015610406576004818154811061036857610367610ad4565b5b9060005260206000200160009054906101000a900473ffffffffffffffffffffffffffffffffffffffff1673ffffffffffffffffffffffffffffffffffffffff1663d7bb99ba836040518263ffffffff1660e01b81526004016000604051808303818588803b1580156103da57600080fd5b505af11580156103ee573d6000803e3d6000fd5b505050505080806103fe90610b03565b915050610347565b5050565b8073ffffffffffffffffffffffffffffffffffffffff166108fc479081150290604051600060405180830381858888f19350505050158015610450573d6000803e3d6000fd5b5050565b60026020528060005260406000206000915054906101000a900460ff1681565b60008054906101000a900473ffffffffffffffffffffffffffffffffffffffff1681565b66038d7ea4c6800081565b60015481565b6060600480548060200260200160405190810160405280929190818152602001828054801561052d57602002820191906000526020600020905b8160009054906101000a900473ffffffffffffffffffffffffffffffffffffffff1673ffffffffffffffffffffffffffffffffffffffff16815260200190600101908083116104e3575b5050505050905090565b6001600260003373ffffffffffffffffffffffffffffffffffffffff1673ffffffffffffffffffffffffffffffffffffffff16815260200190815260200160002060006101000a81548160ff021916908315150217905550600360008154809291906105a290610b03565b9190505550565b60008054906101000a900473ffffffffffffffffffffffffffffffffffffffff1673ffffffffffffffffffffffffffffffffffffffff163373ffffffffffffffffffffffffffffffffffffffff161461060157600080fd5b60005b6004805490508110156106c7578173ffffffffffffffffffffffffffffffffffffffff166004828154811061063c5761063b610ad4565b5b9060005260206000200160009054906101000a900473ffffffffffffffffffffffffffffffffffffffff1673ffffffffffffffffffffffffffffffffffffffff16036106b4576040517f5bb7d60100000000000000000000000000000000000000000000000000000000815260040160405180910390fd5b80806106bf90610b03565b915050610604565b506004819080600181540180825580915050600190039060005260206000200160009091909190916101000a81548173ffffffffffffffffffffffffffffffffffffffff021916908373ffffffffffffffffffffffffffffffffffffffff16021790555050565b6004818154811061073e57600080fd5b906000526020600020016000915054906101000a900473ffffffffffffffffffffffffffffffffffffffff1681565b60035481565b6000600154905090565b6000819050919050565b6107908161077d565b82525050565b60006020820190506107ab6000830184610787565b92915050565b600080fd5b600073ffffffffffffffffffffffffffffffffffffffff82169050919050565b60006107e1826107b6565b9050919050565b6107f1816107d6565b81146107fc57600080fd5b50565b60008135905061080e816107e8565b92915050565b60006020828403121561082a576108296107b1565b5b6000610838848285016107ff565b91505092915050565b600061084c826107b6565b9050919050565b61085c81610841565b811461086757600080fd5b50565b60008135905061087981610853565b92915050565b600060208284031215610895576108946107b1565b5b60006108a38482850161086a565b91505092915050565b60008115159050919050565b6108c1816108ac565b82525050565b60006020820190506108dc60008301846108b8565b92915050565b6108eb81610841565b82525050565b600060208201905061090660008301846108e2565b92915050565b600081519050919050565b600082825260208201905092915050565b6000819050602082019050919050565b61094181610841565b82525050565b60006109538383610938565b60208301905092915050565b6000602082019050919050565b60006109778261090c565b6109818185610917565b935061098c83610928565b8060005b838110156109bd5781516109a48882610947565b97506109af8361095f565b925050600181019050610990565b5085935050505092915050565b600060208201905081810360008301526109e4818461096c565b905092915050565b6109f58161077d565b8114610a0057600080fd5b50565b600081359050610a12816109ec565b92915050565b600060208284031215610a2e57610a2d6107b1565b5b6000610a3c84828501610a03565b91505092915050565b7f4e487b7100000000000000000000000000000000000000000000000000000000600052601260045260246000fd5b7f4e487b7100000000000000000000000000000000000000000000000000000000600052601160045260246000fd5b6000610aae8261077d565b9150610ab98361077d565b925082610ac957610ac8610a45565b5b828204905092915050565b7f4e487b7100000000000000000000000000000000000000000000000000000000600052603260045260246000fd5b6000610b0e8261077d565b91507fffffffffffffffffffffffffffffffffffffffffffffffffffffffffffffffff8203610b4057610b3f610a74565b5b60018201905091905056fea2646970667358221220e7a56d3ec2a8285a351af1a12d110e83cc013c357760cb92e1d6e790226b8fb064736f6c63430008110033",
  "linkReferences": {},
  "deployedLinkReferences": {}
}