{
  "_format": "hh-sol-artifact-1",
  "contractName": "OrganizationFactory",
  "sourceName": "contracts/OrganizationFactory.sol",
  "abi": [
    {
      "inputs": [],
      "name": "createOrganization",
      "outputs": [],
      "stateMutability": "nonpayable",
      "type": "function"
    },
    {
      "inputs": [],
      "name": "getAllOrganizations",
      "outputs": [
        {
          "internalType": "address[]",
          "name": "",
          "type": "address[]"
        }
      ],
      "stateMutability": "view",
      "type": "function"
    },
    {
      "inputs": [
        {
          "internalType": "uint256",
          "name": "",
          "type": "uint256"
        }
      ],
      "name": "organizations",
      "outputs": [
        {
          "internalType": "address",
          "name": "",
          "type": "address"
        }
      ],
      "stateMutability": "view",
      "type": "function"
    }
  ],
  "bytecode": "0x608060405234801561001057600080fd5b5061107a806100206000396000f3fe608060405234801561001057600080fd5b50600436106100415760003560e01c8063086ed93814610046578063dd7d784014610064578063e792dd8a1461006e575b600080fd5b61004e61009e565b60405161005b91906102fb565b60405180910390f35b61006c61012c565b005b61008860048036038101906100839190610358565b6101bf565b6040516100959190610394565b60405180910390f35b6060600080548060200260200160405190810160405280929190818152602001828054801561012257602002820191906000526020600020905b8160009054906101000a900473ffffffffffffffffffffffffffffffffffffffff1673ffffffffffffffffffffffffffffffffffffffff16815260200190600101908083116100d8575b5050505050905090565b600060405161013a906101fe565b604051809103906000f080158015610156573d6000803e3d6000fd5b5090506000819080600181540180825580915050600190039060005260206000200160009091909190916101000a81548173ffffffffffffffffffffffffffffffffffffffff021916908373ffffffffffffffffffffffffffffffffffffffff16021790555050565b600081815481106101cf57600080fd5b906000526020600020016000915054906101000a900473ffffffffffffffffffffffffffffffffffffffff1681565b610c95806103b083390190565b600081519050919050565b600082825260208201905092915050565b6000819050602082019050919050565b600073ffffffffffffffffffffffffffffffffffffffff82169050919050565b600061026282610237565b9050919050565b61027281610257565b82525050565b60006102848383610269565b60208301905092915050565b6000602082019050919050565b60006102a88261020b565b6102b28185610216565b93506102bd83610227565b8060005b838110156102ee5781516102d58882610278565b97506102e083610290565b9250506001810190506102c1565b5085935050505092915050565b60006020820190508181036000830152610315818461029d565b905092915050565b600080fd5b6000819050919050565b61033581610322565b811461034057600080fd5b50565b6000813590506103528161032c565b92915050565b60006020828403121561036e5761036d61031d565b5b600061037c84828501610343565b91505092915050565b61038e81610257565b82525050565b60006020820190506103a96000830184610385565b9291505056fe608060405234801561001057600080fd5b50336000806101000a81548173ffffffffffffffffffffffffffffffffffffffff021916908373ffffffffffffffffffffffffffffffffffffffff160217905550610c35806100606000396000f3fe6080604052600436106100f35760003560e01c80638da5cb5b1161008a578063d7bb99ba11610059578063d7bb99ba14610308578063e9f146a314610312578063f274c8971461033d578063f84038b114610366576100f3565b80638da5cb5b1461025e578063937e09b114610289578063cb31ac9a146102b4578063d0e06220146102df576100f3565b806344c89b65116100c657806344c89b65146101c65780637dafd3c0146101f15780637e6253da1461020857806386cdf60414610233576100f3565b80630adec93c146100f857806312065fe014610121578063141961bc1461014c57806334b6646014610189575b600080fd5b34801561010457600080fd5b5061011f600480360381019061011a9190610885565b610391565b005b34801561012d57600080fd5b5061013661043a565b60405161014391906108cb565b60405180910390f35b34801561015857600080fd5b50610173600480360381019061016e9190610912565b610442565b6040516101809190610960565b60405180910390f35b34801561019557600080fd5b506101b060048036038101906101ab91906109a7565b610481565b6040516101bd91906109ef565b60405180910390f35b3480156101d257600080fd5b506101db6104a1565b6040516101e891906108cb565b60405180910390f35b3480156101fd57600080fd5b506102066104a7565b005b34801561021457600080fd5b5061021d6104c1565b60405161022a91906108cb565b60405180910390f35b34801561023f57600080fd5b506102486104cb565b6040516102559190610ac8565b60405180910390f35b34801561026a57600080fd5b50610273610559565b6040516102809190610960565b60405180910390f35b34801561029557600080fd5b5061029e61057d565b6040516102ab91906108cb565b60405180910390f35b3480156102c057600080fd5b506102c9610583565b6040516102d69190610ac8565b60405180910390f35b3480156102eb57600080fd5b50610306600480360381019061030191906109a7565b610674565b005b6103106106e9565b005b34801561031e57600080fd5b5061032761075b565b60405161033491906108cb565b60405180910390f35b34801561034957600080fd5b50610364600480360381019061035f9190610aea565b610761565b005b34801561037257600080fd5b5061037b610818565b60405161038891906108cb565b60405180910390f35b60008054906101000a900473ffffffffffffffffffffffffffffffffffffffff1673ffffffffffffffffffffffffffffffffffffffff163373ffffffffffffffffffffffffffffffffffffffff16146103e957600080fd5b8073ffffffffffffffffffffffffffffffffffffffff166108fc61040b61043a565b9081150290604051600060405180830381858888f19350505050158015610436573d6000803e3d6000fd5b5050565b600047905090565b6005818154811061045257600080fd5b906000526020600020016000915054906101000a900473ffffffffffffffffffffffffffffffffffffffff1681565b60026020528060005260406000206000915054906101000a900460ff1681565b60045481565b600460008154809291906104ba90610b59565b9190505550565b6000600454905090565b6060600580548060200260200160405190810160405280929190818152602001828054801561054f57602002820191906000526020600020905b8160009054906101000a900473ffffffffffffffffffffffffffffffffffffffff1673ffffffffffffffffffffffffffffffffffffffff1681526020019060010190808311610505575b5050505050905090565b60008054906101000a900473ffffffffffffffffffffffffffffffffffffffff1681565b60015481565b6060600060035467ffffffffffffffff8111156105a3576105a2610ba1565b5b6040519080825280602002602001820160405280156105d15781602001602082028036833780820191505090505b5090506000805b60035481101561066b578281815181106105f5576105f4610bd0565b5b60200260200101518383815181106106105761060f610bd0565b5b602002602001019073ffffffffffffffffffffffffffffffffffffffff16908173ffffffffffffffffffffffffffffffffffffffff1681525050818061065590610b59565b925050808061066390610b59565b9150506105d8565b50819250505090565b60036004541061068357600080fd5b6005819080600181540180825580915050600190039060005260206000200160009091909190916101000a81548173ffffffffffffffffffffffffffffffffffffffff021916908373ffffffffffffffffffffffffffffffffffffffff16021790555050565b6001600260003373ffffffffffffffffffffffffffffffffffffffff1673ffffffffffffffffffffffffffffffffffffffff16815260200190815260200160002060006101000a81548160ff0219169083151502179055506003600081548092919061075490610b59565b9190505550565b60035481565b60008054906101000a900473ffffffffffffffffffffffffffffffffffffffff1673ffffffffffffffffffffffffffffffffffffffff163373ffffffffffffffffffffffffffffffffffffffff16146107b957600080fd5b6107c161043a565b8111156107cd57600080fd5b8173ffffffffffffffffffffffffffffffffffffffff166108fc829081150290604051600060405180830381858888f19350505050158015610813573d6000803e3d6000fd5b505050565b6000600154905090565b600080fd5b600073ffffffffffffffffffffffffffffffffffffffff82169050919050565b600061085282610827565b9050919050565b61086281610847565b811461086d57600080fd5b50565b60008135905061087f81610859565b92915050565b60006020828403121561089b5761089a610822565b5b60006108a984828501610870565b91505092915050565b6000819050919050565b6108c5816108b2565b82525050565b60006020820190506108e060008301846108bc565b92915050565b6108ef816108b2565b81146108fa57600080fd5b50565b60008135905061090c816108e6565b92915050565b60006020828403121561092857610927610822565b5b6000610936848285016108fd565b91505092915050565b600061094a82610827565b9050919050565b61095a8161093f565b82525050565b60006020820190506109756000830184610951565b92915050565b6109848161093f565b811461098f57600080fd5b50565b6000813590506109a18161097b565b92915050565b6000602082840312156109bd576109bc610822565b5b60006109cb84828501610992565b91505092915050565b60008115159050919050565b6109e9816109d4565b82525050565b6000602082019050610a0460008301846109e0565b92915050565b600081519050919050565b600082825260208201905092915050565b6000819050602082019050919050565b610a3f8161093f565b82525050565b6000610a518383610a36565b60208301905092915050565b6000602082019050919050565b6000610a7582610a0a565b610a7f8185610a15565b9350610a8a83610a26565b8060005b83811015610abb578151610aa28882610a45565b9750610aad83610a5d565b925050600181019050610a8e565b5085935050505092915050565b60006020820190508181036000830152610ae28184610a6a565b905092915050565b60008060408385031215610b0157610b00610822565b5b6000610b0f85828601610870565b9250506020610b20858286016108fd565b9150509250929050565b7f4e487b7100000000000000000000000000000000000000000000000000000000600052601160045260246000fd5b6000610b64826108b2565b91507fffffffffffffffffffffffffffffffffffffffffffffffffffffffffffffffff8203610b9657610b95610b2a565b5b600182019050919050565b7f4e487b7100000000000000000000000000000000000000000000000000000000600052604160045260246000fd5b7f4e487b7100000000000000000000000000000000000000000000000000000000600052603260045260246000fdfea26469706673582212202cfa2400fd465a6efbc3c37613a6eeac29c664be0490fb5d3e7806765748227864736f6c63430008110033a264697066735822122040ed28dc63234fde06ff9e988fd1d4838c541a55c8cb45577a6cadb534c1fadb64736f6c63430008110033",
  "linkReferences": {},
  "deployedLinkReferences": {}
}